:1080000000400020FDF6000033F7000035F70000C7
:1080100037F7000039F700003BF7000031F70000A8
:1080200031F7000031F7000031F700003DF70000A4
:108030003FF7000031F7000041F7000043F7000070
:10804000718A000045CD000049F7000035E70000C7
:1080500039EA00004FF7000051F7000053F7000025
:10806000B9BF000049CD000059F700005BF70000E0
:108070005DDF00005FF7000061F7000063F70000BC
:1080800065F7000067F7000085CF00006BF7000080
:108090006DF700006FF7000071F7000073F7000044
:1080A000B9BC000077F7000079F700007BF700000B
:1080B0007DF700007FF700000000000000000000D6
:1080C00000000000000000000000000000000000B0
:1080D00000000000000000000000000000000000A0
:1080E0000000000000000000000000000000000090
:1080F0000000000000000000000000000000000080
:1081000010B5054C237833B9044B13B10448AFF3D1
:1081100000800123237010BDE00B00200000000050
:10812000847F010008B5064B1BB106480649AFF332
:1081300000800648036813B1054B03B1984708BD9A
:1081400000000000847F0100E40B0020DC0B002015
:1081500000000000154B002B08BF134B9D46A3F5F4
:10816000803A00218B460F461348144A121A07F032
:108170006DFE0F4B002B00D098470E4B002B00D00C
:1081800098470020002104000D000D48002802D06F
:108190000C480AF0BBF907F003FB2000290007F0A8
:1081A00081F807F0EDFA00BF000008000040002051
:1081B0000000000000000000E00B0020BC2C0020AC
:1081C0000D250100C9340100204AD36A03F470531D
:1081D000B3F5805F35D0B3F5005F04D0B3F5006F21
:1081E00004D11B4B00E01B4B18687047D36803F4A5
:1081F000E063B3F5007F16D008D8B3B1B3F5807F44
:108200001DD1154B154AD86C154B12E0B3F5806F94
:108210001AD0B3F5A06F04D0B3F5407F0FD1114849
:10822000704711487047114870470B4B104AD86C83
:10823000104BB0F1985F34BF1046184670470020CD
:1082400070474FF4004070470B48704700800C4067
:108250000402002000020020B081E00FC0CF6A00BD
:1082600040B56400809FD500003FAB01C0D8A70097
:1082700040420F00804F1200406F400108B5FFF7E9
:10828000A3FF044B5B6803F00F03D840024B186058
:1082900008BD00BF00800C40E02B0020014B186897
:1082A000704700BF04020020044B1860044BDB6AD7
:1082B0001B0501D5FFF7E2BF704700BF0402002095
:1082C00000800C4070474FF4004070474FF47A70C4
:1082D00070470000014B1868704700BF0002002083
:1082E000044B1860044BDB6A9B0401D5FFF7C6BF43
:1082F000704700BF0002002000800C400A494B6814
:1083000003F00702032A0CD8DFE802F00202070795
:1083100023F0070343F0010303E023F0070343F0D6
:1083200003034B60704700BF00000C40104A10B5BB
:10833000104C11490244A2424B680BD803F00702CB
:10834000023A012A23F0070394BF43F0030343F0EA
:1083500001030BE0094A904208D803F00702023AF1
:10836000012A23F0070398BF43F002034B6010BDBE
:10837000FFDB0BFFFF23F40000000C400024F4009F
:10838000034B5A6DD20702D41A6D1042FCD17047CC
:1083900000800C4008B50D4B40009B6AC34003F0C1
:1083A0000303022B07D0032B09D0012B0BD1BDE80F
:1083B0000840FFF788BFBDE80840FFF78BBFFFF715
:1083C0005DFF400808BD002008BD00BF00800C40D4
:1083D000042919D8DFE801F0030507090B00012281
:1083E00006E0032204E0002202E0022200E0042270
:1083F000064B9A61054B0822D8615A62DA6A520428
:10840000FCD4024BD86970470020704700800C40B4
:10841000C0F30311013903460122032934D8DFE8F0
:1084200001F002050C1F194B986801E0174B5868C2
:1084300000F00F0002FA00F07047154A0120934245
:1084400004D002F50432934205D070470F4B9B6E67
:1084500003F00F0311E00D4B9B6EC3F303130CE00D
:108460000C4A0120934204D002F50432934206D014
:108470007047064B1B6F03F0030398407047034B94
:108480001B6FC3F30113F8E70120704700800C4015
:108490003004080040051400C0F30313013B10B57D
:1084A0000C46032B6DD8DFE803F0020E2147B1FA2A
:1084B00081F4344BE4B29A68C4F11F0422F00F0235
:1084C00014439C6010BDFFF719FFB4FA84F42D4BE0
:1084D000E4B25A68C4F11F0422F00F0214435C6036
:1084E000FFF7CCFEBDE81040FFF720BF264B9842B7
:1084F00004D003F5043398420ED010BD0420FFF7DA
:108500003FFFB4FA84F41F4BE4B29A6EC4F11F0427
:1085100022F00F0214430DE00420FFF731FFB4FAFC
:1085200084F4184BE4B29A6EC4F11F0422F0F002F6
:1085300042EA04149C6610BD144B984204D003F523
:10854000043398420ED010BD4020FFF719FFB4FA53
:1085500084F40C4BE4B21A6FC4F11F0422F003023E
:1085600014430DE04020FFF70BFFB4FA84F4054BF1
:10857000E4B21A6FC4F11F0422F0300242EA04147C
:108580001C6710BD00800C4030040800400514003A
:10859000C0F30323013B70B50D46052B21D8DFE85E
:1085A00003F0031206090C0F00230E4C0DE000230C
:1085B0000D4C0AE001230D4C07E010230C4C04E0A5
:1085C00000230C4C01E00C4C0023C0F3043613B123
:1085D0001846FFF7D5FE04F1047406EBC406B60096
:1085E000356070BD08800C4040800C4058800C40C5
:1085F00060800C4078800C4044800C4000F00F00FC
:10860000013803282CD8DFE800F0041821020720E5
:108610007047154BDB6A03F47053B3F5805F0AD0E3
:10862000B3F5005F05D0B3F5006F0CBF0420052043
:10863000704702207047032070470B4B9B6A03F082
:108640000303013B022B0DD8084A07E0064B9B6A47
:1086500003F00C03043B082B04D8054AD05C704798
:10866000002070470120704700800C40E862010044
:10867000EB62010000F47810B0F5202F08B53CD073
:1086800019D8B0F5802F2FD009D8002855D0B0F5D3
:10869000003F56D1FFF798FD2B4B9B682AE0B0F5C1
:1086A000C02F25D0B0F5002F4BD10020FFF772FE70
:1086B000254B9B6E1EE0B0F5B01F2BD00DD8B0F54A
:1086C000901F22D0B0F5A01F3BD10120FFF762FE22
:1086D0001D4B1B6F03F0030323E0B0F5C01F22D036
:1086E000B0F5D01F27D02CE0BDE80840FFF7C6BD8D
:1086F00000200BE003F00F0313E00020FFF74AFE19
:10870000114B9B6EC3F303130BE00120BDE808403F
:10871000FFF740BE0120FFF73DFE0B4B1B6FC3F37D
:108720000113D84008BD0948FFF768FF072802D0A9
:10873000082802D005E0064808BDBDE80840FFF75C
:1087400043BD002008BD00BF00800C40040018009D
:10875000809FD500054B30B11A6D002AFCD1034B28
:1087600001225A6570475865704700BF00800C4071
:10877000024BD868C0F30220704700BF00800C4055
:1087800070B50546052836D8DFE800F00306090E67
:108790001216194BDC6A0DE0174BDC6A0EE0164B23
:1087A000DC6AC4F307440BE0134BDC6A240E07E0D9
:1087B000114B1C6BE4B203E00F4B1C6BC4F307249A
:1087C0000120FFF71BFF0528064601D1FFF796FDA4
:1087D0000A4A052ED36823F4FF6323F0070343EA14
:1087E000052545EA0404D46005D1FFF747FDBDE83F
:1087F0007040FFF79BBD70BDB081E00F00800C4062
:10880000024BD868C0F30430704700BF00800C40B2
:10881000044B00F01F00DA6822F4F83242EA00321A
:10882000DA60704700800C400020704770470000FD
:1088300010B5042821D8DFE800F00C091103060068
:10884000012002230CE01020202309E04020802397
:1088500006E04FF480704FF4007301E00420082319
:10886000064C29B1206222B1E26A1342FCD000E03A
:108870002362BDE8104000F065BB10BD00800C40D5
:1088800010B500F00F04012C03D04CD3032C22D9D7
:1088900010BD0239032946D8DFE801F0020B0508B4
:1088A0000020042407E00220044604E00320012401
:1088B00001E00120032401210A46FFF7B9FFFFF779
:1088C0001DFD194B5C6200F03DFBFFF7D7FCBDE8D6
:1088D0001040FFF72BBD0139052924D8DFE801F04E
:1088E00016030A232311012100200A46FFF7A0FFE7
:1088F00002230CE0012001460246FFF799FF012305
:1089000005E00A4B01221A60032300E00023064A17
:10891000022C916A0BBF21F0030121F00C010B43E3
:1089200041EA8303936210BD00800C400808904325
:10893000032808D0042809D001280BD1064B186958
:1089400000F07F007047044BD86801E0024B586983
:10895000C0B270470020704700800C4003280CD044
:10896000042812D0012817D10C4B01F07F011A699D
:1089700022F07F02114319617047084BC9B2DA68CF
:1089800022F0FF021143D9607047044BC9B25A6903
:1089900022F0FF0211435961704700BF00800C4074
:1089A00001280CD006D3022811D10A4B986F00F091
:1089B000200008E0074B986F00F0020003E0054B31
:1089C000986F00F00800003018BF012070470020A9
:1089D000704700BF00800C40014BC0001950704729
:1089E000040F90432DE9F041DFF880800401D8F8AE
:1089F00008C0069D079F089EA4441AB9D8F80C80A9
:108A0000444400E06446DCF80CC0BCF1000F01D027
:108A10008CF8082057B1D4F808C0CCF3816CBCF1B5
:108A2000030F1CBF06FA0CFC674427603DB1A76822
:108A3000BF0F032F1CBF06FA07F7ED19656001256C
:108A400005FA00F0094D0BB1A86100E0E8610AB138
:108A5000686300E02863A36823F47F5323F037039F
:108A60000B4343EA0616A660BDE8F08100200C40E7
:108A70001A4B1B4A41F20C0112682DE9F0415F5874
:108A8000174000D5FEE7D3F83880022607EA08052C
:108A90000024EDB1EB0718D50121A1400F4B114A7D
:108AA0009B68116003EB0413DB6873B1197AD3F888
:108AB00000C081F001021A72BCF1000F05D0003134
:108AC000204618BF01215A68E0476D080134E0E7ED
:108AD000013E27EA0805DBD1BDE8F08100200C400B
:108AE00000300C4008300C4030B585B08DE80C00EB
:108AF000089B0D46029302212A4600230446FFF7F5
:108B000071FF0120A040024B9862586105B030BD52
:108B100000200C40F0B585B00A9C0F4601940B9CD8
:108B2000164600930294334601213A460546FFF764
:108B300059FF012303FA05F5014B9D6205B0F0BD15
:108B400000200C40F0B585B00D460B9917460091FA
:108B50000C991E4601910D992B460291002203218A
:108B60000446FFF73FFF0A9B2046029300972B46DF
:108B7000019603210122FFF735FF012303FA04F4D4
:108B8000014B9C6205B0F0BD00200C402DE9F04186
:108B90001E4F1C01D7F808C0A4F104080501904439
:108BA00045F80C80FF6805EB0C060C373D44103C83
:108BB000756014449568A76805F0060527F0070757
:108BC000A760A768042D0CBF47F0020747F0010714
:108BD000A760F4680CB10027277292689B0102F429
:108BE000E0122A4342F02A4242F40042103B42EA99
:108BF000C1021A43012303FA00F0044B042DB260B2
:108C00005863986208BF5861BDE8F08100200C40AD
:108C1000104B10B59C688A6804EB0014E2600C7875
:108C2000012282400CB19A6300E0DA634A6800F5E1
:108C3000886443F82420084B4A78034432B1012267
:108C400002FA00F0034C41F2080160509B001A60E8
:108C500010BD00BF00200C406080E11010B50C4B2F
:108C600009B19B6800E0DB681179D478890441EA96
:108C70008431147803EB00109378A407527844EA07
:108C8000037444EA826242EA03630B43836010BDCB
:108C900000200C40F0B5547A9589032C18BF05FAD2
:108CA00004F716684FEA011118BFF6194650431829
:108CB000117A506803291CBF05FA01F68019586023
:108CC0000020D860D07B977B0028907A4FEA817192
:108CD000D27A41EA00714FEA874747EA051541EA2F
:108CE000846445EA823544EA00600CBF0526072605
:108CF000284330439860F0BD034B9B6A23FA00F091
:108D000000F00100704700BF00200C40F0B59DF856
:108D10001C60059D002E069C0CBF4FF0030C4FF00D
:108D2000010C164F060109B1B96800E0F968314439
:108D300045B18E68C6F38166032E1CBF04FA06F6A1
:108D4000AD190D603BB18D68AD0F032D1CBF04FA4A
:108D500005F55B194B60012303FA00F0074D0AB1DA
:108D6000A86100E0E8618B6823F47F5323F03703A8
:108D700043EA041343EA0C038B60F0BD00200C406F
:108D80000F4B0120C3F880000E4BFF2200215960D9
:108D9000DA615A62DA625A63DA63D86441F20C0229
:108DA0000948995041F2080298500A4602F5886134
:108DB00001320020082A43F82100F7D1704700BF94
:108DC00000E100E000200C40FF00008010B5012110
:108DD00004460C48FFF7DCFBFFF7D2FF0A4B0122E9
:108DE000C3F880211A60094B41F20C024FF0004198
:108DF000995062689A602278520142F001025A60EA
:108E000010BD00BF0013040000E100E000200C4092
:108E10001A4B45F60E02D3F88400C3F88420184A92
:108E200000F00100128802F4AA71196202F4705174
:108E3000B1F5805F06D0B1F5005F08D0B1F5006FE5
:108E400010D109E0D96A0906FCD5032108E0D96AE6
:108E50008905FCD5042103E0D96A0907FCD5022164
:108E6000064B5962D30702D4044B02221A6218B18E
:108E7000024B0022C3F88420704700BF00800C40E2
:108E8000FC0B0020094B0A4ADB6A9BB21380094A9B
:108E9000116941F00401116130BF08B1FFF7B8BF9B
:108EA0005B0501D4FFF7EAB9704700BF00800C40B2
:108EB000FC0B002000ED00E0134B1449DA6A10B5FA
:108EC00092B20A80D3F8841045F60E04C907C3F89D
:108ED000844048BF00214FF420741C6248BFC3F88F
:108EE00084100B4B196941F00401196130BF18B1AE
:108EF000BDE81040FFF78CBF530503D4BDE8104018
:108F0000FFF7BCB910BD00BF00800C40FC0B002077
:108F100000ED00E0074B4AF6E8529A600C21082267
:108F20001A6019601A6019601A6019601A60196075
:108F30001A60704700600C40014B5860704700BFDA
:108F400000600C40024BDA6A024B1A80704700BF87
:108F500000800C40FC0B0020044BD3F8202122F4AD
:108F6000407242EA0020C3F82001704700600040D0
:108F70002423584300F1804000F5C040036823F0EB
:108F800003031943016070470729F0B5174C0DD84A
:108F90008D000F26AE4000FA05F5D4F8007127EADF
:108FA000060646EA0500C4F800010EE0A1F1080536
:108FB000AD000F26AE4000FA05F5D4F8047127EA9B
:108FC000060646EA0500C4F8040109480844800082
:108FD0000260C0F88030012303FA01F1034BC3F8AB
:108FE0001C119DF81430C0F80031F0BD0060004045
:108FF00040088310F0B572B1012524248D4033B1AF
:10900000444304F1804404F5C044256103E004FBBB
:1090100000F61B4CA55124244443072904F1804445
:1090200004F5C0440CD88D004FF00F0C02FA05F681
:109030000CFA05F5676827EA0505354365600EE01B
:1090400001F18045083DAD004FF00F0C02FA05F626
:109050000CFA05F5A76827EA05053543A5606AB946
:109060000124242204FA01F150432BB100F1804085
:1090700000F5C0400161F0BD014B1950F0BD00BFCB
:1090800014600040036CDB0702D4436C1942FCD12E
:10909000704721F007014904490C01F58071B0FBCC
:1090A000F1F301FB13000002B0FBF1F000EB032031
:1090B000704700000A4B10B59842044605D003F5EE
:1090C0008063984209D1074800E00748FFF7D2FAC9
:1090D000E168BDE81040FFF7DCBF002010BD00BF15
:1090E00000400840401516004005140038B50446FD
:1090F000154661B90D4B984205D003F5806398423F
:1091000012D10B4800E00B48FFF7B4FA01464901C1
:10911000B1FBF5F12039C90047F6F8750D4020463E
:109120000421FFF7AFFFE56038BD00BF00400840F5
:10913000401516004005140038B5CD4305F005056F
:10914000044641EA45050221FFF79CFF656038BDF2
:1091500029B1436C002BFCD10123036470470164E7
:10916000704770B50D4602210446FFF78BFF0A23B6
:109170006360666C002EFCD10123236423682A7B84
:1091800023F01C0313436A7B20461343AA7B6968C0
:1091900013432360AA68FFF7A9FF2B786360266456
:1091A00070BD436C002BFCD101220264EA224260B4
:1091B00040F2F9720360C3600361436183634263F9
:1091C000C36343650364704783689B06FCD5C0692D
:1091D000C0B2704783689B06FCD5806980B2704737
:1091E00038B504460D46A368DB06FCD52046402171
:1091F000FFF748FFA56238BD38B504460D46A368A1
:10920000DB06FCD520462021FFF73CFF656238BD18
:1092100038B504460D460121FFF734FF236815B128
:1092200043F4005301E023F40053236038BD38B504
:1092300004460D460121FFF725FF236815B143F4CD
:10924000805301E023F48053236038BD70B5044699
:1092500016461D4619B91448FFF70CFA0146202D91
:109260000DD001D82DB170BD402D04D0602D04D09B
:1092700070BD102304E0062302E0042300E008236D
:109280007343890001EB5301B1FBF3F3043B074A3D
:109290009B011A40236823F06003236023681D4369
:1092A0002560626170BD00BF10810200C0FF1F0019
:1092B00010B50F4C0C405AB9202B0AD0402B04D0CB
:1092C000002B0CBF1023402303E08023032201E086
:1092D0008023012204F580746243B0FBF2F102FBAB
:1092E00011005843B0FBF2F003FB010010BD00BFBA
:1092F000C0FF1F0070B5044605680648FFF7BAF9BD
:10930000236805F00102616903F06003BDE8704065
:10931000FFF7CEBF1081020038B50546144619B9D3
:109320000748FFF7A7F90146631E03EB4101B1FBB4
:10933000F4F4A401034B403C23406B6138BD00BFF3
:109340001081020000FF1F00CB4303F005035B0008
:10935000C360C160704783684A7823F037030AB15D
:1093600043F020030A780AB143F010038A781343CC
:109370008360704740F6AA63C36041F20502002390
:109380000360426041F6F97283604361C3648264A2
:10939000024A4365904208BF0365704700C0004021
:1093A00038B50C460546FFF7E5FF228A637B284661
:1093B0001343E289616813436B60A268237BFFF764
:1093C00045FF2378EB6038BD38B5114D0446214682
:1093D0002846FFF7E5FF2B68284643F480432B60BF
:1093E000237D1BB12B6843F400532B60217EA37DAA
:1093F000026D0B43617D43EAC1031343E27D43EAFF
:10940000C2130365036D43F00103036538BD00BF5C
:1094100000C0004038B50C460546FFF7ABFF238A75
:10942000A27B296843F00103002A9BB20CBF0022F3
:109430004FF480620B4313432B60237B284643F495
:1094400080536B606168A268FFF766FF637B0BB1B6
:109450001023EB602378EB6038BD03691B06FCD555
:10946000C069C0B270470369DB05FCD5406A80B2B1
:1094700070470369DB05FCD5006A704703691B066A
:10948000FCD5806980B2704703695A06FCD54163F8
:1094900003699B06FCD5C069C0B2704703695B06CF
:1094A000FCD54163704703695B06FCD5C163704717
:1094B00003695B06FCD58163704703695B06FCD5D5
:1094C0000163704710B504460748FFF7D3F82368D7
:1094D0000649C3F301232269CB5C02FB0333043347
:1094E000B0FBF3F010BD00BF10810200F462010078
:1094F00070B504461E461546D2B1036823F4407386
:109500000360036843EA0623036019B90948FFF7BB
:10951000B1F80146084BA1EB85019A5D23685543DC
:109520009B07B1FBF5F202D5002A08BF0122226198
:1095300070BD00BF10810200F462010000F10470F0
:10954000400101607047000000224263094A38B5BB
:1095500002634A7800F104756B0182F001020C4647
:109560005A604968237BA268FFF7C2FF23786D0128
:109570002B6038BDCFFF010000230360036143610E
:1095800083614363014B0363704700BFCFFF01005A
:10959000964BF0B5984240F02481954B98681E7820
:1095A00059881A79914FBC6A3D4614F4C06F0CD0AB
:1095B000A5058F4859801A7101D5FD2203E0640585
:1095C00040F1FF80FE224270FBE0082E00F2F580A1
:1095D000DFE816F009002100460055006E0080000B
:1095E000A700BC00E500598041881A710288C806AE
:1095F00005D5120A02F0060242F0F00205E002F080
:10960000FE028F0748BF42F001027849012018701E
:109610004A624860D7E0260600F18580640601D4DE
:1096200001204AE040253D634588704CEE0606D592
:109630001A7102221A70027859806262C3E0AF0781
:1096400040F182801A7100EBC20212895980012A0E
:109650004FF00701197040F0B68008226260B2E056
:10966000260660D4640601D4022026E040243C6330
:10967000448814F0020F14BF0326052692E7598090
:1096800041881A710288C80643BF120A02F0060216
:1096900042F0F00202F0FE024F074FF00401197091
:1096A000524948BF42F00102012048604A628AE004
:1096B000260638D4640604D40420187059801A7120
:1096C00081E040243C63448867073DD51A71598086
:1096D000072277E000EBC20425898D4218D8418823
:1096E000013201F00404A4B2D2B214B10021032665
:1096F00058E711F0010106D05C801A7108221A7037
:1097000002213A4A40E0012A7FF64CAF5980F4E743
:109710001A716268481C515C344A588051620622B2
:1097200050E026060AD51A71802259802A63FF224A
:109730005A7008221A7002226A6044E0640601D45A
:109740000620BAE740243C6305262BE7072659800C
:10975000A106274D1E701A7135D500EBC202118982
:109760006C8822488C42C06903D25268661C6E80A5
:10977000105558881D4A884208D3012904BF082182
:10978000516008211970022151601CE00424012954
:10979000546018D00139884215D10821F4E7082017
:1097A0001A71E205187059800DD5104A4FF4807176
:1097B00011630F4A0921117005E01A71FB225980CB
:1097C0005A7009221A701978094A09290BD10748D9
:1097D0000021416392F90100012808BF51705878B7
:1097E00002E0FC2000E0012040B2F0BD00A00040FB
:1097F000040C0020154B984224D18368DB0744BF3A
:10980000202343604B889A0701D50A89D2B15807B3
:1098100001D50B8AB3B10E4B002201201A711A70C8
:1098200058705A809960094BC0225A609A6A07485A
:10983000920648BFDA69074A1A634FF4FC625A631A
:10984000FFF7A6BE6FF00300704700BF00A0004006
:10985000040C0020CFFF0100034B1A6AD20702D488
:109860005A6A1042FCD170470000084020B101281C
:1098700005D1044BD8687047024B986870470020A8
:10988000704700BF0000084038B50D4610B10128F0
:1098900003D038BD0220044C01E0044C0420FFF743
:1098A000DBFF256038BD00BF080008400C00084001
:1098B00010B504460120FFF7CFFF4FF086431C6030
:1098C00010BD0000054B30B15A6A002AFCD1034B91
:1098D00001221A6270471862704700BF00000840FA
:1098E000437810B504780BB144F0020483780BB1CF
:1098F00044F004040120FFF7AFFF014B1C6010BDD2
:1099000000000840044B00221A621A609A60DA6074
:10991000DA619A61704700BF0000084008B5002076
:10992000FFF7C6FFBDE808400120FFF7C1BF0000F8
:10993000064B1A6902F03F0202709A69DB6902F075
:10994000F002C3F30313134343707047D0FF0FE0DB
:10995000074B5A68013208D01A68904201D1586802
:109960007047044A08339342F3D10020704700BF88
:109970000080E00F9081E00F09B1012300E0022395
:10998000436070470B7810B50BB902224260002289
:109990004262CA788C78120442EA04628C792243CB
:1099A0000C7942EA84224C7942EA04224C78002C59
:1099B0000CBF002440242243CC79002C0CBF00248F
:1099C000802422430C7A002C0CBF00242024224344
:1099D0004C7A897A002C0CBF00241024002942EA1A
:1099E00004020CBF002108210A4302600BB10123CD
:1099F000436010BD537810B514781B0643EA8463A6
:109A00009479033123439478090143EA0443D478D9
:109A100043EA0433147943EA8423547943EA042360
:109A2000D479002C0CBF00244FF400142343147A83
:109A3000002C0CBF00244FF480142343547A927AF4
:109A4000002C0CBF00241024002A43EA04030CBF9E
:109A5000002204221343435010BD0023C0F8883075
:109A600070470223436040F2737200230360C360B7
:109A700082614FF6FF72C2614CF6806203624362FC
:109A800003634363C36303644364C364036543655F
:109A9000C365C0F88820036743678367C3670F23E4
:109AA000C0F8843070474CF68063C0F88830704747
:109AB000F7B5002840F08F80484E3078830700F1DA
:109AC0008B8005F0C7F905F08DFB0A25FF20013DCD
:109AD00005F08AF915F0FF05F8D12846294605F06A
:109AE00043FB0128044601D0002460E04FF47A7063
:109AF00005F09AFB08204FF4D57105F035FB0128DD
:109B000035D1FF2005F070F901AF78550135042DEE
:109B1000F7D19DF80630012BE6D19DF80730AA2B2E
:109B2000E2D105F08BFB28B105F088FB0146002847
:109B3000DAD107E0A9204FF0804105F015FB00289D
:109B4000EFD1F1E73A2005F00FFB0028CCD1044615
:109B5000FF2005F049F938550134042CF8D19DF85F
:109B6000043013F0400F0CBF04240C241FE02946DE
:109B7000A92005F0F9FA01289ABF0224A925254653
:109B800005F05CFB014660B105F058FB0028ABD145
:109B900010204FF4007105F0E7FA002818BF0024E8
:109BA00005E0284605F0E0FA0028E9D1ECE70C4B87
:109BB0001C8005F037F934B1337823F0010333709A
:109BC00005F020FB05E005F06BF9337843F0010365
:109BD0003370307800E0012003B0F0BD08020020AF
:109BE000100C002010B9024B187870470120704704
:109BF0000802002038B50D461C461146002833D116
:109C000093B31B4B1B78DA0730D41A4B1B881B0706
:109C100058BF4902012C0DD1112005F0A5FAE8B971
:109C200028464FF4007105F0F5F9D0F1010438BF72
:109C3000002413E0122005F097FA78B928464FF473
:109C4000007105F0E7F928B1013C14F0FF0405F5B7
:109C50000075F3D10C20002105F086FA05F0E2F83A
:109C6000201C18BF012038BD042038BD032038BD9A
:109C700008020020100C002070B50D4616461C4648
:109C8000002840D1002B3ED0224B1B78D8073CD473
:109C900059073CD4204B1B881A0758BF7602012C69
:109CA0000DD11820314605F05FFA30BB2846FE2161
:109CB00005F002FAD0F1010438BF00241DE013F0D2
:109CC000060F03D09720214605F04EFA19203146A1
:109CD00005F04AFA88B92846FC2105F0EDF928B1CB
:109CE000013C14F0FF0405F50075F4D10020FD21BE
:109CF00005F0E2F9002808BF012405F093F8201CC4
:109D000018BF012070BD042070BD032070BD02206B
:109D100070BD00BF08020020100C0020F0B51546F1
:109D200085B0002840F0E380734B1A78D20700F129
:109D3000E0800E2900F2D480DFE801F008134B4FD9
:109D4000D2D2D2D210D29DA1A3AFBF0005F072F83B
:109D500008B90124C7E005F065F8C3E001221A70D4
:109D6000C0E00920002105F0FFF904460028F0D1E9
:109D70006846102105F04EF90028EAD09DF8003021
:109D80009DF808209B09012B9DF8093004D103EBB5
:109D9000022301339B021AE09DF807109DF80A0088
:109DA000890001EB92129DF8061003F0030301F005
:109DB000030102EB81229DF80510013201F00F0131
:109DC00001EBD01101EB4303073B02FA03F32B60D5
:109DD00089E04FF400732B8084E0484E318801F015
:109DE000040189B2D9B18D20002105F0BDF9002808
:109DF000AFD1FF2004F0F8FF6846102105F00AF902
:109E00000028A6D03024FF20013C04F0EDFF14F020
:109E1000FF04F8D19DF80A3010221B09D5E709206C
:109E200005F0A2F9002894D16846102105F0F2F857
:109E300000288ED034889DF80A2004F00204A4B2D1
:109E40009DF80B3064B19DF80D1002F03F02DB0964
:109E500003EB42038909013301398B402B6041E058
:109E600003F003015B0903EBC103C2F38402013376
:109E700002FB0333ABE7214B1B882B7032E0092038
:109E800000E00A20002105F06FF900287FF461AF9F
:109E90002846102105F0BEF81DE03A20002105F00B
:109EA00063F900287FF455AF0446FF2004F09CFFBF
:109EB00028550134042CF8D114E08D20002105F040
:109EC00053F900287FF445AFFF2004F08DFF2846AA
:109ED000402105F0F1F8D0F1010438BF002402E080
:109EE000042400E0002404F09DFF204602E004204A
:109EF00000E0032005B0F0BD08020020100C002097
:109F000010B500239CB2A24203D0CC5CC4540133F0
:109F1000F8E710BD036930B501F10902002B35D017
:109F200043690024185D202808D0052804F10104A5
:109F300008BFE520082C02F8010BF3D1187A20287D
:109F40000DD010462E2400F8044BDD1D013215F80B
:109F5000014F202C03D002F8014B8242F7D1D87A6E
:109F60000872987FDC7F000440EA04601C7F204375
:109F70005C7F40EA042008605C7E187E40EA042092
:109F80008880D87D9B7D43EA0023CB80002313701B
:109F900030BD2DE9F041056B04468D420E4602D1DD
:109FA0000020BDE8F081037913B9002EF8D01FE03E
:109FB00000F13408414640782A460123FFF75CFE51
:109FC00010B10120BDE8F081226A636A2071134458
:109FD0009D42EAD2E778012FE7D9236A60781D44D1
:109FE00041462A460123013FFFF746FEFFB2F2E752
:109FF000607804F1340132460123FFF7FBFD0028AD
:10A00000DFD12663BDE8F08110B504460A464078EA
:10A0100004F134010123FFF7EDFD80BB94F83232E7
:10A0200094F8332243EA0222174B12B29A4228D103
:10A0300094F86C2094F86D30120442EA036294F8AC
:10A040006A301A4394F86B3042EA03220F4B22F035
:10A050007F429A4216D094F8880094F88920000430
:10A0600040EA026094F88620104394F8872040EA82
:10A07000022020F07F40C01A18BF012010BD03202D
:10A0800010BD022010BD00BF55AAFFFF464154007D
:10A090002DE9F041154602681378303B9BB2092B3D
:10A0A00005D854783A2C02D10232026001E0B64B56
:10A0B0001B78002B40F05681B44B1C680C60002CC0
:10A0C00000F05381237873B16078FFF78BFDC607EA
:10A0D00009D4002D00F04C8110F0040F0CBF0020BB
:10A0E0000A20BDE8F081002020706070FFF7E0FCDE
:10A0F000C10700F1408115B1420700F13F812046C0
:10A100000021FFF781FF012818D194F8F63113B927
:10A110000D20BDE8F08194F8FC6194F8FD3136041F
:10A1200046EA036694F8FA3120461E4394F8FB3160
:10A1300046EA03263146FFF767FF00E000260328C2
:10A1400000F01F810028E3D194F8402094F83F30BC
:10A1500043EA0223B3F5007FDAD194F84B0094F878
:10A160004A3053EA00200DD194F85A0094F85B303D
:10A17000000440EA036094F85830184394F85930CA
:10A1800040EA032094F8445020626B1E012BE570D6
:10A19000BED894F84110A1700029B9D04B1E0B42D3
:10A1A000B6D194F8453094F8462043EA02221307CA
:10A1B0002281ADD194F8487094F8473053EA0723D0
:10A1C0000DD194F8563094F857701B0443EA076396
:10A1D00094F854703B4394F8557043EA072394F87D
:10A1E000438094F8427057EA082891D005FB00FCA0
:10A1F00008EB12176744BB428AD3DB1BB3FBF1F3B6
:10A20000002B85D040F6F5718B4206D94FF6F575D7
:10A21000AB428CBF0325022500E001250233374401
:10A2200006EB0801032DE361E762616213D1002AA6
:10A230007FF46EAF94F8622094F86310120442EA3F
:10A24000016294F860109B000A4394F8611042EA9E
:10A250000122A26210E0002A3FF45AAF022D4FEA19
:10A26000430218BFD218614418BF03F00103A16272
:10A270000CBF134603EB520303F2FF13B0EB532F53
:10A28000FFF446AF4FF0FF332361032D4FF000037F
:10A29000E3605AD1637194F8652094F86430607873
:10A2A00043EA02223244626104F134010123FFF7E0
:10A2B000A1FC002849D194F8323294F8332243EAC1
:10A2C0000222334B12B29A423FD194F8362094F8CE
:10A2D0003730120442EA036294F834301A4394F897
:10A2E000353042EA03222B4B9A422ED194F81A229F
:10A2F00094F81B32120442EA036294F818321A43AB
:10A3000094F8193242EA0322234B9A421DD194F861
:10A31000223294F823221B0443EA026394F8202299
:10A32000134394F8212243EA0223E36094F81E3297
:10A3300094F81F221B0443EA026394F81C2213437F
:10A3400094F81D2243EA02232361144A0020138853
:10A35000257001339BB220711380E3802063A061DC
:10A36000BDE8F0810B20BDE8F0810C20BDE8F08154
:10A370002846BDE8F0810320BDE8F0810A20BDE851
:10A38000F0810120BDE8F081120C0020180C0020A3
:10A3900055AAFFFF5252614172724161140C0020B4
:10A3A00008B568B103785BB1C3888B4208D14078A7
:10A3B000FFF718FC10F0010F0CBF0020032008BDB0
:10A3C000092008BD38B500210446FFF7E2FD034629
:10A3D000002B50D12278032A45D16279002A42D03D
:10A3E000236304F134010025CD540133B3F5007F1C
:10A3F000F9D1552384F83232AA2384F83332522318
:10A4000084F8343084F83530612384F8363084F8A9
:10A410001B322369412284F8372084F81A22C3F3BF
:10A42000072284F81C3284F81D221A0C1B0E84F8B3
:10A430001F32E36884F81E22C3F30722722084F8D7
:10A44000203284F821221A0C1B0E84F8180284F89A
:10A45000190284F8222284F8233260786269012389
:10A46000FFF70AFC6571002160780A46FFF756FC89
:10A47000003018BF012038BDC3690239023B994240
:10A480003DBF8278C36A02FB01300020704701297A
:10A49000F8B504460D4661D9C36999425ED2037886
:10A4A000022B2AD0032B3AD0012B54D18EB206EBCB
:10A4B0005606416AB6B201EB5621FFF76AFD002845
:10A4C00049D1C6F30803616A0136B6B22344204677
:10A4D00001EB562193F83470FFF75BFD00283AD169
:10A4E000C6F30806344494F83400EB0747EA00202A
:10A4F0004CBF0009C0F30B00F8BD416A01EB152108
:10A50000FFF747FD38BB6D0005F4FF7563192C4458
:10A5100093F8343094F8350043EA0020F8BD416ADE
:10A5200001EBD511FFF735FDA8B9AD0005F4FE75B7
:10A53000631993F8370093F8362034335B780006BC
:10A5400040EA02402C4440EA032094F83430184397
:10A5500020F07040F8BD4FF0FF30F8BD0120F8BD8D
:10A5600070B504460D46E1808168012901D10220C1
:10A5700070BD0368DA699142F9D271B91A78032A79
:10A5800001D1996A49B90022E2601A89AA42EED93A
:10A590009B6A03EB1513236119E09E783601B542DF
:10A5A0000ED32068FFF773FF431C014618D0012823
:10A5B000DDD92368DB699842D9D2AD1BADB2EEE795
:10A5C000E1602068FFF758FF00EB15102061236859
:10A5D00005F00F0503EB451334336361002070BDB4
:10A5E000012070BD10B5C1880446FFF7B9FF50B90E
:10A5F00020682169FFF7CDFC28B96369E5221A704C
:10A60000236801221A7110BD0129F8B504460D46D0
:10A61000164673D9C369994270D20378022B3BD096
:10A62000032B4AD0012B65D18FB207EB5707416A44
:10A63000BFB201EB5721FFF7ACFC00285BD1C7F399
:10A64000080315F001052344F2B206D093F8341044
:10A6500001F00F0141EA0212D2B20137616A83F8B8
:10A660003420BFB201232371204601EB5721FFF7AD
:10A6700090FC00283FD1C7F30807274415B1C6F363
:10A68000071606E097F83430C6F3032623F00F03CD
:10A690001E4387F834602EE0416A01EB1521FFF775
:10A6A00078FC40BB6D0005F4FF75631983F83460D6
:10A6B000C6F3072683F835601DE0416A01EBD5112A
:10A6C000FFF767FCB8B9AD0005F4FE75631993F8A0
:10A6D0003720120602F070421643C6F3072283F8B1
:10A6E000346083F83520320C360E83F8362083F838
:10A6F000376000E0022001232371F8BD0220F8BD7D
:10A70000F8B505460F4631B9C6686EB1C3699E42B9
:10A7100028BF012609E0FFF7BAFE01283BD9EB6903
:10A72000984239D33E4600E001263446EB690134B5
:10A730009C4204D3012E01D80020F8BD02242846F3
:10A740002146FFF7A4FE48B1411C02D14FF0FF3073
:10A75000F8BD01281FD0B442E8D1EDE728462146D4
:10A760006FF07042FFF750FF98B947B92B69EC6062
:10A770005A1C0CD0013B2B6101236B7107E028466A
:10A7800039462246FFF740FF0028EFD001E020467F
:10A79000F8BD0128DAD00120F8BD2DE9F843C688BC
:10A7A00004460136B6B20F4616B90420BDE8F88358
:10A7B0000369002BF9D016F00F085CD1C168013392
:10A7C0000361006819B90389B342EED953E0827876
:10A7D000013A12EA16124ED1FFF759FE012805463A
:10A7E00002D80220BDE8F883421C02D10120BDE856
:10A7F000F8832068C3699D4237D3002FD5D0E16824
:10A80000FFF77EFF054600283ED00128E9D0431C13
:10A81000ECD020680021FFF7BCFB0028E6D12368BC
:10A82000343300271F540130B0F5007FF9D1D4F83C
:10A83000009029464846FFF71FFEC9F830002368FC
:10A84000FAB2997891420DD901221A71206800213B
:10A85000FFF79FFB01370028C8D123681A6B01322C
:10A860001A63ECE7196B8A1A1A63E56020682946B7
:10A87000FFF702FE20612368E68003EB48133433C0
:10A8800063610020BDE8F8830720BDE8F88300007D
:10A890002DE9F0410B7804462F2B0D4601D05C2B9F
:10A8A00002D10135002301E003689B69A3602B7886
:10A8B0001F2B35D820460021FFF752FE002363618D
:10A8C000BDE8F08100228B5C501C2E2B85B23ED05F
:10A8D0002F2B41D1202B0D448CBF20232423F37236
:10A8E00020460021FFF73CFE30B920682169FFF7C0
:10A8F00050FB002800F09380A369DB7A002800F069
:10A90000A780042840F0C28013F0200F03F0040356
:10A9100000F0A3800022A2606261002B40F09A80C8
:10A920002B7829462F2B05F10105F9D05C2BF7D0A8
:10A93000A66900232022F25401330B2BFAD10B78A5
:10A940002E2BBFD0002003460827024616E0022A1D
:10A9500062D0B3540246B6E75C2BBBD0202B5BD849
:10A96000B8E72F2B28D05C2B26D02E2B0CD1082F0C
:10A9700052D192003846D2B20B272B465D1CCB5CDD
:10A98000ADB2202BEDD815E0B84245D213F0800FC0
:10A9900006D0DFF8FCC0803B1CF8033042F0030215
:10A9A000DFF8F08018F801CFBCF1000F1DD09C45F6
:10A9B000F8D131E0042300E0002368B330780D447F
:10A9C000E52804BF05203070082F04BF9200D2B2E2
:10A9D00002F00300012802F00C0208BF43F010034C
:10A9E000042A08BF43F0080379E7A3F1410CBCF146
:10A9F000190F02D842F0020208E0A3F1610CBCF189
:10AA0000190F03D8203B42F00102DBB200F1010C28
:10AA100033541FFA8CF0B0E70620BDE8F08162697C
:10AA200013789BB1D37A1E070BD4A7690346D15C78
:10AA30000133FE1816F8016C8E4202D10B2BF6D1B1
:10AA40005AE720460021FFF7A8FE4DE7042053E710
:10AA5000590708D50020BDE8F081002B14BF042061
:10AA60000520BDE8F0816369DA7AD2060BD5597DFD
:10AA70001A7D42EA0122D97E9B7E43EA012343EA02
:10AA80000243A3604CE70520BDE8F081BDE8F081FA
:10AA900007630100F762010038B500210446FFF7A3
:10AAA0005FFD054618BB20682169FFF772FA05466D
:10AAB000E8B963691B78E52B05D023B12046012155
:10AAC000FFF76BFEEDE720682169FFF762FA0546A4
:10AAD00068B960692B460022C2540133202BFAD199
:10AAE0000B22A169FFF70CFA236801221A7128468C
:10AAF00038BD10B504230446216991B12068FFF7E1
:10AB000048FAA8B963691A788AB1E52A02D0DB7AD3
:10AB10001B070FD520460021FFF73FFE40B9034633
:10AB2000EAE7184633B100222261184610BD04201E
:10AB30000346F8E710BD012970B504460D4622D939
:10AB4000C36999421FD2E3699D4205D22046294636
:10AB5000FFF79DFC064608B9002070BD012812D001
:10AB6000411C0ED0204629460022FFF74DFD58B962
:10AB700023695A1C03D001332361012363713546D5
:10AB8000E1E7012070BD022070BD000038B50C4621
:10AB900080B9094A1368154603B1187014B100232F
:10ABA000237004E0607808212246FFF7B7F82C6094
:10ABB000002038BD0B2038BD180C00202DE9F041D5
:10ABC0008CB0002305460CA840F82C1D2B601746BE
:10ABD00002F01F0605A902F01E02FFF759FA02ABA8
:10ABE0000B9318B905A80199FFF752FE0A9C10B9FA
:10ABF000002C08BF062017F01C0F44D048B10428D1
:10AC000002D105A8FFF748FF46F008060A9C30B1BC
:10AC10006DE0E37A13F0110F68D17B0762D4370738
:10AC20003AD504F015FB227D677DC0F30723E17E52
:10AC300042EA0727A27EA073E373030C000E23747D
:10AC40006074002342EA01220598E3722377637758
:10AC5000A377E377A376E3762375637552EA074714
:10AC60004FF00103037117D03946D0F83080FFF759
:10AC700062FF00283BD10598013FC7604146FFF7BE
:10AC800088F948B133E0002831D1E37AD8062BD4D3
:10AC9000B90701D5DA0729D43307059B48BF46F029
:10ACA00020061A6BAE71EA612C62227D617DE07E26
:10ACB00042EA0121A27E42EA002242EA01422A61DE
:10ACC000A27FE17F120442EA0162217F00200A4351
:10ACD000617F2B60DB8842EA0122EA60A860A861FC
:10ACE000AB8004E0082002E0042000E007200CB064
:10ACF000BDE8F0812DE9F84F9A4600230446AAF8F2
:10AD000000300F460068A1881546FFF749FB002870
:10AD100040F0AC80A379180600F1A480D90740F177
:10AD2000A480E268A368D31A9D4243D99DB241E052
:10AD3000A368C3F30802002A40F08180206890F8DD
:10AD400002B00BF1FF3B0BEA532B1BF0FF0B34D08F
:10AD5000D4F8009061694846FFF78EFB002838D090
:10AD60005FEA552800EB0B0645D099F802300BEB53
:10AD700008029A42C4BFCBEB03081FFA88F85FFAB7
:10AD800088F399F8010039463246FEF733FFA3797C
:10AD900000284DD15B0621D44FEA4826B6B2A368FD
:10ADA000AD1B3344A360BAF8003037443344AAF8EB
:10ADB0000030ADB2002DBBD151E00BB9206902E0EB
:10ADC0006169FFF764FB012803D9421C2FD0606141
:10ADD000BEE7A37963F07F03A37143E0A369981BE7
:10ADE0004045D9D207EB402004F124014FF4007212
:10ADF000FFF786F8D0E7A269B2421FD0A37904F129
:10AE0000240813F0400F0AD0012399F801004146AD
:10AE1000FEF732FFA37958B923F04003A3712368EA
:10AE20004146587832460123FEF7E4FE30B1A3795B
:10AE300063F07F03A3710120BDE8F88FA661A168CC
:10AE40003846C1F30801C1F50076B6B2B54238BF45
:10AE50002E46214424313246FFF752F89FE7284618
:10AE6000BDE8F88F0220BDE8F88F0720BDE8F88F15
:10AE70002DE9F84F994600230446A9F800300F4603
:10AE80000068A1881546FFF78BFA002840F0BF80C4
:10AE9000A37918065CD4990740F1B880E368DD42D5
:10AEA00028BF002536E05FEA552800EB0A067AD075
:10AEB0009BF802300AEB08029A42C4BFCAEB0308AF
:10AEC0001FFA88F89BF80100394632465FFA88F38A
:10AED000FEF7D2FE002876D1A369991B41450BD21B
:10AEE00004F1240007EB41214FF40072FFF708F84A
:10AEF000A37923F04003A3714FEA4826B6B2A368B2
:10AF0000AD1B3344A360B9F8003037443344A9F88B
:10AF10000030ADB225B3A368C3F30802002A5AD1AA
:10AF2000206890F802A00AF1FF3A0AEA532A1AF0C0
:10AF3000FF0A1ED17BB9216921B9FFF7E1FB014668
:10AF4000206169B10129A37910D163F07F03A37156
:10AF50000220BDE8F88F6169FFF7D2FB0146F0E7F8
:10AF6000A368E26893424AD9E36048E04A1C2BD0C8
:10AF70006161A3795B060CD5214651F8243BA26997
:10AF800058780123FEF778FEA379E8B923F040034F
:10AF9000A371D4F800B061695846FFF76DFA002834
:10AFA00081D1A379D1E7A369B34213D0A268E36842
:10AFB0009A420FD29BF8010004F12401324601238A
:10AFC000FEF718FE30B1A37963F07F03A37101206F
:10AFD000BDE8F88FA661A0683946C0F30800C0F547
:10AFE0000076B6B2B54238BF2E46204424303246F1
:10AFF000FEF786FFA37943F04003A3717FE7A379AF
:10B00000002043F02003A371BDE8F88F0720BDE8BE
:10B01000F88F38B50446A1880068FFF7C1F9002809
:10B020004AD1A37903F0200202F0FF00002A43D0A6
:10B030005B060DD5214651F8243BA26958780123BF
:10B04000FEF71AFE002836D1A37923F04003A3713E
:10B050002068E169FEF79DFF70BB256AEB7A43F03B
:10B060002003EB72E3682B77A3891B0A6B77E389D4
:10B07000AB77E37BEB772369AB76238A1B0AEB760E
:10B08000638A2B75638A1B0A6B7504F0E1F8C0F3C1
:10B090000723A875EB75030C000E2B766876A37951
:10B0A000012223F02003A37123681A712068BDE8F0
:10B0B0003840FFF787B9012038BD10B50446FFF7C7
:10B0C000A8FF00B9206010BD10B9024B187070477E
:10B0D0000B207047120C002000B58DB00CAB43F86C
:10B0E0002C0D184605A90022FEF7D2FFF8B902ABD5
:10B0F00005A801990B93FFF7CBFB98B90A9B0BB9F5
:10B10000079A0CE0DA7AD20610D5597D1A7D42EA08
:10B110000122D97E9B7E43EA012343EA0242059B3A
:10B120009A6104E0042808BF052000E005200DB066
:10B130005DF804FB70B504460D460068A188FFF772
:10B140002FF9002840F09380A279160600F18C8038
:10B15000E3689D4203D912F0020F08BF1D4600228A
:10B16000A368A2600DB900254DE0206886787602BC
:10B170006BB1013B691EB1FBF6F1B3FBF6F29142F4
:10B1800005D372421340A360ED1A61690AE0216998
:10B1900039B9FFF7B5FA012801462DD0013052D058
:10B1A000216161610029DED0B5421AD9A3792068F6
:10B1B0009A0704D5FFF7A4FA014618B910E0FFF783
:10B1C00066F901464B1C3ED0012915D92368DB697D
:10B1D000994211D2A36861613344A360AD1BE3E7D8
:10B1E0003546A3682B44A360C5F30803002BBAD0EF
:10B1F0002068FFF741F920B9A37963F07F03A371B9
:10B2000032E000EB5525A368C3F3080313B3A2692A
:10B2100095421FD0A37904F1240613F0400F0AD001
:10B220002368314658780123FEF726FDA37958B9E3
:10B2300023F04003A3712368314658782A4601233E
:10B24000FEF7D8FC28B1A37963F07F03A371012036
:10B2500070BDA561A368E268934207D9E360A37952
:10B2600043F02003A37101E0022070BD002070BDF7
:10B2700010B586B0044606A840F8141D00222146E9
:10B28000FEF706FF10BB03ABA36120460199FFF751
:10B29000FFFAB0B963696BB1DA7AD20615D5597D78
:10B2A0001A7D42EA0122D97E9B7E43EA012343EACA
:10B2B0000243A36023682046DB880021A380FFF7B8
:10B2C0004FF9042808BF052000E0052006B010BD96
:10B2D0007FB504460E460068A188FFF761F8054671
:10B2E000E8B926B920462946FFF73AF916E001AB3E
:10B2F000A3612046FFF7FDFB042801D1256100E092
:10B3000060B920463146FEF705FE20460021FFF7D2
:10B3100044FA042802D10023236100E005462846B0
:10B3200004B070BD30B58DB00CAB43F82C0D0D469C
:10B33000184605A90022FEF7ABFE044678B902AB19
:10B3400005A801990B93FFF7A3FA044638B90A9BA5
:10B3500023B105A82946FEF7DDFD00E006242046BE
:10B360000DB030BD2DE9F74F02AB43F8040D884610
:10B370001646114618460022FEF78AFE04460028AB
:10B3800061D13368DF691A69B91E8A4202D8C8F8E8
:10B39000002058E093F80090B9F1010F11D1022775
:10B3A000054630683946FFF772F8431C3CD0012847
:10B3B0003CD000B9013533680137DB699F42F0D3D7
:10B3C00037E0596A02460346054652B9306801F132
:10B3D000010AFEF7DEFD58BB3368514634334FF4A3
:10B3E0000072B9F1020F587893F800C006D15CEAF8
:10B3F000002C08BF01350233023A11E093F802A095
:10B4000093F803B04FEA0A4A4AEA0B6A4AEA0C0C7C
:10B410004CEA002020F0704000B901350433043AB2
:10B42000013F92B2D1D104E0012402E0022400E005
:10B4300004463368B9F1030F08BF01221D6108BF3C
:10B440005A71C8F80050204603B0BDE8F08F70B5BF
:10B450000446A1880068FEF7A3FF054600283AD1FC
:10B46000A379190631D49A0731D5A668E268B242A9
:10B4700031D943F02003E660A37120682EB9216919
:10B48000FFF759FB2661054619E06169FEF7FFFFEA
:10B49000431C06461DD0012801D1022510E020687A
:10B4A000C3699E4217D261696FF07042FFF7ACF832
:10B4B000054628B920683146FFF73DFB054655B1E2
:10B4C000A37963F07F03A37105E0022503E007255C
:10B4D00001E00125F4E7284670BD30B595B014AB06
:10B4E00043F84C0D184606A90122FEF7D1FD0028AD
:10B4F00051D103AB06A801990C93FFF7C9F90028B5
:10B5000049D10C9BDB7A9A0601D5062043E00B9BC0
:10B5100033B1DA7A12F0010F0CBF0020072000E0EF
:10B5200006205D7D1C7DD97E9A7E002833D1DB7A92
:10B5300044EA052442EA0122DB0642EA04441BD520
:10B54000012C15D90DA806A91C22FEF7D9FC0DA8BF
:10B5500002210F94FFF704F8E8B90DA8FFF7C9FA24
:10B5600040B10D9B9B699C4204D0042804D012E09A
:10B57000022010E007200EE006A8FFF733F850B9CC
:10B580001CB90698FEF71EFF05E006982146FFF756
:10B59000D2FA0028F5D015B030BD2DE9F04F91B0AA
:10B5A00010AC44F82C0D03F053FE09A90746012204
:10B5B0002046FEF76DFD0446002840F0CA8006AB29
:10B5C00009A805990F93FFF763F9044658B10428B9
:10B5D00040F0BF800F9BDB7A03F0200303F0FF04F1
:10B5E0001BB10624B5E00824B3E009982146FFF713
:10B5F00087F8064600287FD0012E7FD0731C08BF35
:10B60000012474D021460998FEF7C3FC04460028A3
:10B610006DD1099D31462846FEF72EFF05F134080D
:10B620008446002108F804100134B4F5007FF8D1F5
:10B63000202208F8012001310B29F9D1102126FA26
:10B6400001FBFBB285F84A300193C7F3072385F865
:10B650004B300293C7F3074385F84C302E240393F5
:10B660005FFA8BFAF3B23F0EC6F307294FEA1B2BA2
:10B6700085F83F1085F8344085F84D7085F84E30D8
:10B6800085F84F9085F848A085F849B005F1540039
:10B690004146CDF800C00493FEF732FC099985F8C5
:10B6A000554008780B9A0328DDF800C003D1886A5A
:10B6B000824208BF002285F86E20C2F30720120CD8
:10B6C00085F86820120A85F86F0085F869208D7862
:10B6D0000DB3099801210CF101020171C0F830C0CD
:10B6E00000210092FEF755FC009A044640B10998EB
:10B6F0003146FFF720FA2CE00724F8E70224F6E7AA
:10B70000002108F804100134B4F5007FF8D1013DA0
:10B71000EDB29446DCE709A8FFF7BEF9044600281D
:10B72000E5D10E9B1022DA72019A09989A75029A55
:10B730005F76DA75039A83F81B901A76049A83F879
:10B7400014A09A7683F815B001230371FEF73AFE30
:10B750000446204611B0BDE8F08F30B58DB00CAB7B
:10B7600043F82C0D0C461546184605A90122FEF794
:10B770008FFCE0B902AB05A801990B93FFF788F89D
:10B78000A8B90B9BDB7A9B0610D40A9B73B1D97ABC
:10B7900005F0270221EA0201144041EA040205985B
:10B7A000DA7201230371FEF70DFE00E006200DB0F2
:10B7B00030BD10B58CB00CAB43F82C0D0C461846C0
:10B7C00005A90122FEF764FCE8B902AB05A80199BE
:10B7D0000B93FFF75DF8B0B90B9BDB7A9B0611D496
:10B7E0000A9B7BB1E28805989A75E288120ADA759D
:10B7F000A2881A76A288120A5A7601230371FEF7EC
:10B80000E1FD00E006200CB010BD30B59BB01AABD6
:10B8100043F8640D0C4618460CA90122FEF738FCCB
:10B8200000287DD10C9B0CA81393019903AB1293B4
:10B83000FFF72EF8002873D1129BDB7A9A0664D4A6
:10B84000119900295FD006A80B311522FEF758FB8D
:10B8500013A80CA91C22FEF753FB13A82146FFF7DF
:10B8600017F800284DD004285AD113A8FFF714F96F
:10B87000002855D1189C132204F10D000DF11A0176
:10B88000FEF73EFB9DF81830012243F02003E372DF
:10B890000C9B1A71159B0E9A9A4238D0E37ADB06FC
:10B8A00035D5237D617DE27E43EA0121A37E139D90
:10B8B00043EA022343EA01412846FEF7DDFD014643
:10B8C00068B32846FEF765FB139B48BB93F85520E9
:10B8D0002E2A1CD11A78032A159A02D1996A8A4213
:10B8E00000D01046C0F3072283F86E00000C83F8E6
:10B8F0006F2083F868000122000A83F869001A713A
:10B9000005E008200CE004200AE0062008E00CA86E
:10B91000FEF768FE20B90C98FEF754FD00E0022007
:10B920001BB030BD72B6044B1A68511C1CBF0132EB
:10B930001A601868704700BF000C0020034B18689D
:10B9400018B10138186000B962B67047000C0020C9
:10B9500030B5184D8DB002AC0FCD0FC40FCD0FC454
:10B9600095E803000E2384E80300079302A84FF430
:10B9700000430B9303F022F900230CA800F82C3DA0
:10B980008DF805308DF80630FDF7AAFF0A4B01202F
:10B99000DA6942F00302DA61FDF78AFF074B6022A1
:10B9A00083F818234FF08072C3F880211A600DB01D
:10B9B00030BD00BF886301000000084000E100E0E6
:10B9C000294B2DE9F3471B68002B49D00024274F52
:10B9D000E61C17F83630B94604F10108002B3CD0BC
:10B9E000234B3C2599685A6805FB012514B9214869
:10B9F00001F03CFC08344FEAC60A09EB0A0309EBE4
:10BA0000C4045A789B7894F80190A1783C2052B2F3
:10BA10005BB24FFA89F949B200FB023C00FB091006
:10BA2000604505DA654500F5B460B8BF05F5B46555
:10BA3000AC4512DC854210DA17F8360068B10B4CC1
:10BA40005444606848B101910B48CDF800904146DC
:10BA500001F00CFC6368304698474446052CB6D18B
:10BA600002B0BDE8F08700BF0C2C0020280C00209D
:10BA7000E82B0020B0630100E4630100024B03EBFC
:10BA8000C0004160704700BF280C002008B5044B7F
:10BA900003EBC0035A680AB15B68984708BD00BF52
:10BAA000280C002030B5074B002413F8305003F861
:10BAB000304003EBC0046170EDB2A27003F8305067
:10BAC00030BD00BF280C0020034B03EBC0004378BF
:10BAD0000B70837813707047280C0020014B13F80B
:10BAE00030007047280C0020024B012203F8302060
:10BAF000704700BF280C0020024B002203F83020C2
:10BB0000704700BF280C002070B500230646114D79
:10BB1000114C2A68934209DC04EBC302516819B93D
:10BB200044F83310566011E00133F0E72B68082B1E
:10BB300003DD0A480A2101F0A7FB2B68002201332C
:10BB400044F8332004EBC30466602B60D8B240B2E3
:10BB500070BD00BF1C0C0020900C0020146401007C
:10BB6000034A002342F8303002EBC00253607047B2
:10BB7000900C0020024B013143F83010704700BF99
:10BB8000900C0020024B002243F83020704700BF89
:10BB9000900C0020064A38B513680446154623B1B8
:10BBA000834202D0034801F061FB2C6038BD00BF26
:10BBB000200C00203F64010010B5094C4FF47A724C
:10BBC0006368C003B0FBF2F11944012021F07F410A
:10BBD000FDF75AFE0423A361024B01221A6010BD37
:10BBE0000000084088030043034B00221A60034B07
:10BBF00004229A61704700BF880300430000084098
:10BC0000014B5868704700BF0000084071B1084BF5
:10BC1000C9035B68181A4FF47A7320F07F40B1FBB8
:10BC2000F3F1884234BF00200120704701207047A3
:10BC300000000840064BC0034FF47A715A68B0FB0D
:10BC4000F1F05968891A21F07F418142F9D3704798
:10BC500000000840054B5A6859689142FCD0034ADD
:10BC6000526859689142FCD0704700BF00000840FC
:10BC7000014B1860704700BF240C002037B580B11D
:10BC8000002002F061FF02AB43F8040D184603F0F8
:10BC9000AFFD074C05460FCD0FC40FCD0FC42B6869
:10BCA0002360044B1B6803B1984703B030BD00BF4D
:10BCB000E82B0020240C0020F8B5364C2369E569F8
:10BCC0001D40E90703D502F0A1FF0123A361AA07E4
:10BCD00002D46B075CD551E0A168002001F500415A
:10BCE00021F07F41FDF7D0FD0223A3610120FFF782
:10BCF000C5FF2949294B4A6893F900000E46904236
:10BD000001D1002425E01A700024254911F83430AF
:10BD1000B3B1E2008B189F7870687FB287420FD171
:10BD2000587840B2013005D058781B4B40B29B6820
:10BD3000984205D18B185A6812B15B682046984723
:10BD400001340D2CE1D1DCE7164B53F834202AB92D
:10BD50000134154B1B689C42F6DDBAE753F83420DA
:10BD6000013A43F83420002AF2D103EBC4035A68A5
:10BD7000002AEDD05B6860B29847E9E70B4B0022E0
:10BD80001A60044B04229A61094B1B6803B198475F
:10BD9000F8BD00BF00000840E82B00200902002089
:10BDA000280C0020900C00201C0C0020880300436D
:10BDB000200C002038B5074D0446FFF7B3FD0FCD2A
:10BDC0000FC40FCD0FC42B682360BDE83840FFF7C8
:10BDD000B5BD00BFE82B00202DE9F041114E124DFA
:10BDE00004460F46FFF79EFD0FCDD6F80480D6F827
:10BDF00008C00FC40FCD0FC42B68236033699B07A5
:10BE000002D540F2E73308E0CCEB080CCCF30E0C83
:10BE10004FF47A7303FB0CF3DB0B3B60BDE8F0419E
:10BE2000FFF78CBD00000840E82B0020F7B500228A
:10BE300002620E4604F064F91B4B01901A6882B945
:10BE4000186001A803F0D4FC184C05460FCD0FC4B0
:10BE50000FCD0FC42B681648236001F007FAFFF7D7
:10BE6000AFFD144C0020E769E0616568FDF720FD37
:10BE7000636A13F0060FFBD11EB90E4B9B685B1B68
:10BE800001E04FF400430B4CA360E3685D1BE560E9
:10BE9000019802F0AFFE002002F0C0FE0120FDF785
:10BEA00007FDE76103B0F0BD0C2C0020E82B00205B
:10BEB0007E64010000000840024A01231370024A18
:10BEC00013707047090D0020B22C002010B52148D6
:10BED0000121FCF75DFB20480121FCF759FB012102
:10BEE0000B4600200A22FDF785F8002001460A22B1
:10BEF0000123FDF77FF81948032383631849FDF7F1
:10BF000023FB184B4022184C83F808234FF480720F
:10BF1000C3F8802101201A602146FFF7AFFD0022FF
:10BF20000B210120FFF7BEFD0120FFF7DDFD022000
:10BF30002146FFF7A3FD002202201721FFF7B2FDE3
:10BF40000220FFF7D1FD094B4FF0FF32DA605A6053
:10BF500010BD00BF00C2020000F2020000A00040BD
:10BF60000C02002000E100E0B9BE0000E00C00205F
:10BF700008B50A4B4FF48072C3F880200848FDF7DB
:10BF8000FBFA00210748FCF703FB074A0023137064
:10BF90000649074A1160074A137008BD00E100E036
:10BFA00000A0004000F20200112C0020A37A010042
:10BFB000142C0020080D002008B50348FDF7E8FA0E
:10BFC000024B187008BD00BF00A00040102C0020DC
:10BFD0002DE9F041C0F307239A4286B004460E468D
:10BFE00015465FD302F08EFD00285ED1314B3248FA
:10BFF0001B7801A9ADF804300423ADF8063000AB7E
:10C00000029301238DF80040ADF80C300496ADF892
:10C010001450FDF7EFFB294B18701A781C4612F0EC
:10C02000800F3CD1264BD3F8048025786DB2012DCA
:10C0300034D1244B1A6922F004021A6130BF204E19
:10C040007368C8EB030323F07F43B3F5804FECD94B
:10C050001D48194F01F018F920237B606420FFF779
:10C06000E9FD1A4BDA69920715D45D610223BB63BF
:10C070007268164BDB699B070AD4114B5B689B1AED
:10C0800023F07F43B3F5203FF3D9114801F0FCF8CA
:10C09000094B03229A63F6232370C6E7074B1878EF
:10C0A00040B204E06FF00A0001E06FF00B0006B050
:10C0B000BDE8F081112C002000A00040102C0020D1
:10C0C0000000084000ED00E0B464010000600040A2
:10C0D000E164010037B50C46062269460546FFF7C4
:10C0E00077FF68B964B1C5F30723013B0246591CC9
:10C0F00005D01DF80310013B41EA0222F7E7226058
:10C1000003B030BD07B501A9FFF7E4FF0028A8BFC1
:10C11000BDF9040003B05DF804FB00002DE9F04117
:10C120000024154BE70013F83450144E98466DB1B7
:10C13000002113483570FFF7CDFF011E06DA4B1CB6
:10C1400002D0104801F0A0F80134EAE708EB070339
:10C150005A6835705B780C4D0C4C0D4800212A60F4
:10C160002370FFF7B7FF002803DB0A4B2B60022385
:10C170002370BDE8F08100BF9C640100112C0020F9
:10C180000002030007650100142C0020080D0020A8
:10C19000590202002D6501002DE9F041694E11237D
:10C1A00086F87730431C8EB005460F4612D0C0F398
:10C1B0000724042C07DD04A92246FFF709FF002805
:10C1C00009DA6148BBE003A9FFF784FF0028F8DB28
:10C1D000039C00E000240F2F00F2B080DFE807F09E
:10C1E000082A133F42454863696D76797D808390C4
:10C1F0009DF8104053480DF11101224604F038FE1D
:10C20000002333558EE09DF810800024444509DA60
:10C2100004EB440004AB013430444C491A5D04F093
:10C22000D5FBF3E708EB480806EB0803002203F808
:10C23000012C77E0C5F30723022B424805D0032BDE
:10C2400006D0012B06D1424900E04249224603E0D4
:10C250004149FBE74149039A04F0B8FB62E03948E1
:10C260003F49F3E737483F49F0E736483E49EDE7B5
:10C270004FF6FE739C4204DD3C49324804F010FD49
:10C2800050E03B4B4FF4B46294FBF2F203FB0244E8
:10C290003C236FF03B0194FBF3F301FB034429487B
:10C2A0000094344929E002222648334994FBF2F2F3
:10C2B000D2E7244830496200CEE74FF47A7394FB0A
:10C2C000F3F220482D4903FB124329E01D482C4975
:10C2D000BCE71C482B4922B2BEE71A482A49B5E7F9
:10C2E00018482A49B2E704F01F036212154828498A
:10C2F000009302F2BC72C4F3431304F067FB11E035
:10C30000A4F6AC224FF00A0E82EAE273A3EBE273CA
:10C3100093FBFEF40EFB14330A481E4992FBFEF217
:10C3200004F054FB96F877300648112B07D01A49D1
:10C330002A463B4604F04AFB024800E017480EB08C
:10C34000BDE8F0810A0D0020386501005C65010040
:10C3500048660100B771010062650100696501006E
:10C360007E75010071650100756501007A65010047
:10C3700060FAFFFF84650100936501009865010084
:10C38000A1650100A6650100AB650100B165010072
:10C39000B8650100C7650100CF6501004365010074
:10C3A000544B37B51A7804461AB100221A70FFF7B9
:10C3B000B5FE51480021FFF78DFE002807DA4F4BEC
:10C3C0004FF6FF724E481A8000F05EFF90E0022C9C
:10C3D00051D14C4B4C4819684C4B4D4D1A7800F0DC
:10C3E00045FF00214B48FFF7D7FE01464A4800F0C1
:10C3F0003DFF2B784948022B0CBF02210021FFF79B
:10C40000CBFE0146464800F031FF00214548FFF7CA
:10C41000C3FE0146444800F029FF00214348FFF7CE
:10C42000BBFE0146424800F021FF01214148FFF7D1
:10C43000B3FE0146404800F019FF09213F48FFF7CD
:10C44000ABFE3F4B2D783F4A0146012D08BF1A46EF
:10C450003D4800F00BFF0C213C48FFF79DFE0146D4
:10C460003B4800F003FF0C213A48FFF795FE0146D8
:10C47000394800F0FBFE00F0F7FD384801A9FFF74E
:10C4800029FE002808DB0199354B8AB21A8064B175
:10C49000344800F0EBFE00E03CB106213248FFF7E3
:10C4A0007BFE0146314800F0E1FE134801A9FFF789
:10C4B00011FE002811DB019B104A99B21180ACB12A
:10C4C0004FF47A72B3FBF2F102FB11326424284874
:10C4D000B2FBF4F200F0CAFE00E03CB10B212548AB
:10C4E000FFF75AFE0146244800F0C0FE00F0BCFDF4
:10C4F00003B030BD0A020020090203001C02002024
:10C50000FF650100142C00201D660100112C002085
:10C51000080D0020201203004F66010023210100B6
:10C520006E660100211003008D66010022100300D9
:10C53000AC6601001C020300CB6601001902030077
:10C54000F5650100A37A0100EA6601001802030004
:10C550000B670100100203002A6701000F020300AD
:10C56000122C002049670100110203006C670100D2
:10C570008B6701000A020300B1670100224B70B50E
:10C580001E781A78F6B21AB100221A70FFF7C6FDAB
:10C590001E4C6068431C0FD0C0F30723042B05DD3D
:10C5A00004F114011222FFF713FD02E0FFF7AAFDC8
:10C5B000A0604FF0FF336360E368144D013313D084
:10C5C0006420FFF737FBE868C0F30723042B05DD81
:10C5D00005F114011222FFF7FBFC02E0FFF792FDC8
:10C5E00028614FF0FF33E36001232370084B1A7872
:10C5F0004AB1002296420CBF01200220BDE87040E3
:10C600001A70FFF7CDBE70BD0A020020E00C0020BA
:10C61000090D0020034A01231370034A1370034AD3
:10C6200013707047090D00200A020020B22C002070
:10C6300010B5054C6060E16004F11400034904F09A
:10C640002FFB0023237010BDE00C00203D6501008E
:10C6500000487047E00C002038B5074B04461A78B4
:10C660001D46904206D0012803D818BF002003F0D1
:10C6700039F82C7038BD00BF820D00200120FFF773
:10C68000EBBF000010B5084800F0F0FD074B02209A
:10C69000C3F88000064B01241C7000F0E1FA20462C
:10C6A000BDE81040FFF7D8BFD6670100006000402A
:10C6B0001E02002013B517480121FBF769FF012175
:10C6C0000B4603200422FCF795FC032002210122E3
:10C6D0000023FCF78FFC104C00221346009203202D
:10C6E0000221FCF751FC23785BB2013303D10B48E4
:10C6F000FFF70AFA207000200949FFF7BFF9002070
:10C7000001213722FFF7CEF9002002B0BDE810402A
:10C71000FFF7EAB900C202001F0200207DC6000038
:10C7200085C6000008B50D4B1A7852B2013203D00D
:10C73000187840B2FFF726FA022000F089FA084B79
:10C740000222DA67002002F0CDFF0020FFF784FF0D
:10C75000BDE80840034800F089BD00BF1F0200206B
:10C7600000600040E56701002DE9F04F0C4691B0F4
:10C770001746002A00F00182AA4B1A789946002A2F
:10C7800000F0E4801B78A84E012B04D10220FFF7B3
:10C7900063FFFF233370A54B1A7852B2013204D0E5
:10C7A0001878052140B2FFF7E5F9002C00F0FB8076
:10C7B000012002F097FF96F900303A2B40F0CC8030
:10C7C000DFF8A0B207AC5D460FCD0FC40FCD0FC48C
:10C7D0002B6807A8236000230F9303F091FC944B70
:10C7E000DBF8202093F800A05D46002A18BF8AF0ED
:10C7F000010A904A9846127852B1BAF1000F07D058
:10C8000019788D4A40F64C63002918BF134600E0A2
:10C810003C238A4A8A4C116810600B44984208BF36
:10C820002378EA6806BF0133DBB201232370217845
:10C830002B690092AA68013301926A6881480292CA
:10C840002A68DFF8FCB103926A6900F00FFD2378D3
:10C85000012B7FD99BF800307B4CFA2B84BFFA2345
:10C860008BF80030DFF8FCE12B6A98F800C013F178
:10C87000000BBEE80F000FC4BEE80F000FC418BFC6
:10C880004FF0010BDEF8003088F800B02360A96893
:10C890006A682B686D4C98F800506D485FFA8CFC04
:10C8A000002D18BF204600906A48CDF814C000F053
:10C8B000DDFCDDF814C0DC452ED05D4B1A781D463A
:10C8C00022B1654800F0D2FC002410E06348F9E78B
:10C8D000172AC8BF00238DF81A3020469DF91A1078
:10C8E0009DF91B200134FFF7DDF80D2C14D00DF15C
:10C8F0001B0220460DF11A01FFF7E6F82A789DF891
:10C900001A30002A0CBFFF2201221344DBB25AB2B4
:10C91000002ADDDA1723DEE74B480121FFF786FA0C
:10C920000020FFF7ABF94E4B424C1A68D71B1F6033
:10C93000BAF1000F01D0002323700420FFF78CFE12
:10C9400023781BB1474B5B68312B02DCFFF7EAFE13
:10C9500013E10027FF2333703378414C5AB2013280
:10C960001CD1414B1A6841F65003A2F21F529A4261
:10C9700017D8236843F23132FB1A23F07F43A3F523
:10C980006643673B93420CD899F80030042B02D0E1
:10C990000320FFF761FE0023337002E0224A0133D7
:10C9A00013702760E9E0204602F09CFE2C4B1B68C8
:10C9B000FF1A2D4B27F07F471F6096F900305A1C55
:10C9C00000F0DB80A7F21F5140F6833291420AD972
:10C9D000A7F58F570C3F974207D90220FFF73CFE7F
:10C9E000FF22114B93E0214600E001211B2B12DCBA
:10C9F000152B58DA102B43D004DC002B3DD080F2ED
:10CA0000BC80B5E0122B40D03CDB132B00F0B5808E
:10CA1000142B41D0ACE0232B68D029DC1C2B134A0B
:10CA20005CD149E0820D0020200200201F0200207E
:10CA3000E42B0020980D00202CF2FFFF840D002035
:10CA40001E020020F5670100E82B00207F6801002E
:10CA5000AB68010029680100596801008468010081
:10CA60008C0D0020182C0020880D0020900D002037
:10CA7000392B4EDD3A2B5AD07AE0002978D17CE070
:10CA80003F4B00E03F4B197077E03E4B1B788B42E9
:10CA90006ED03D4A136270E0002969D03B4A002302
:10CAA00013603B4A18E03A4A107848401070002959
:10CAB00063D0364A153B33E013788B4258D1334963
:10CAC0000B6803F00F00C3F303140A2303FB0403F2
:10CAD0002D48436000230B6013704EE010784840EF
:10CAE0001070002949D0294A1D3B19E0284B1A78BB
:10CAF0008A423DD125490A6802F00F00C2F30114B1
:10CB00000A2202FB04022048826000220A601A7096
:10CB100033E01F4A10784840107071B31B4A243B21
:10CB2000012101FA03F311681943116025E0184B44
:10CB30001B788B421CD1154C0A212368124AC3F37F
:10CB4000011503F00F0001FB0500D060C3F3432083
:10CB5000C3F34035013801FB05001061980B2060DC
:10CB6000C3F3834300F00F0001FB0301516104E0B4
:10CB70000220FFF771FDFF23337011B0BDE8F08F85
:10CB8000980D0020910D0020182C0020940D0020FD
:10CB9000900D0020174B00221860174B4FF6FF71C5
:10CBA000C3F81021C3F80821C3F80C21C3F81C11E5
:10CBB000124B08301A60083030F8102C196812B186
:10CBC0000A431A60F7E70C4AC2F808111B680221F1
:10CBD000C2F80C310A4B602283F80123C3F880119C
:10CBE000196083F809234FF40072C3F880211A609A
:10CBF000704700BFA40D0020006000409C0D002085
:10CC000000E100E0024B0022C3F81021704700BF92
:10CC100000600040064B4FF6FF72C3F81C21054A26
:10CC20001168C3F818111268C3F81021704700BFCB
:10CC3000006000409C0D002010B5044C01232370BF
:10CC4000FFF7E8FF0023237010BD00BFA00D0020F8
:10CC5000024B002203449B001A6070478008831037
:10CC6000012202FA00F1044BC3F81C11034B0344E8
:10CC70009B001A60704700BF00600040800883106E
:10CC8000294B2DE9F0471B781BB9284BD3F80490AA
:10CC900001E04FF00009264AD2F81431D2F81021F1
:10CCA00012EA03083ED0234B1C6808EA040401275B
:10CCB000002C32D0B4FA84F2D2B2C2F11F06B740CF
:10CCC000072E24EA07041A4B05DCD3F80021B30031
:10CCD00022FA03F305E0D3F80431C2F117029200FF
:10CCE000D34003F0070324225A43134B9B581F429F
:10CCF000124B0CBF4FF0000A4FF0010A1D680835B7
:10CD000035F8083C002BD2D03B42F8D055F8043C13
:10CD1000304651464A469847F1E7054BC3F81C8117
:10CD2000074B1F70BDE8F087A00D002000000840F1
:10CD3000006000409C0D00201C600040A40D0020FD
:10CD4000B22C0020FFF79CBFFFF79ABF034B186877
:10CD500018B10138186000B962B67047000C0020A5
:10CD600013B572B6284B294C1A68511C1CBF0132EE
:10CD70001A60237823B102B0BDE81040FFF7E6BF88
:10CD800001232370FFF7E2FF214B22491A880B8809
:10CD900092B2D31A9BB20BB9237033E018B20028B9
:10CDA00007DA0B8840F2DC52C3F5BB6304339BB255
:10CDB00008E0B0F5806F05DD0A884FF4806302F566
:10CDC000806292B208881449184480B208800C88A6
:10CDD00040F2DB50A4B2844204D90888A0F2DC50AF
:10CDE00080B208800D4901200A440D491BB20A6136
:10CDF0000C4A013B10600022019300920146134649
:10CE0000FBF788FE02B010BD000C0020A80D00202A
:10CE1000881300208A13002086130020A80D00200C
:10CE20000001002034000843054A00231360054A2E
:10CE30001188054A89B21180044A1370FFF790BF28
:10CE400034000843861300208A130020A80D002018
:10CE50002DE9F341044601213548364EFBF798FB96
:10CE600035480121FBF794FB01213448FBF790FB87
:10CE70003046FCF796F9324930468C60FCF771F980
:10CE800003240421746520460A460123FCF7B2F806
:10CE90002046052102220123FCF7ACF8294B2A4A3F
:10CEA00000252A4F0124DA601D612948FBF78EFF17
:10CEB0002046C7F880402749FBF7AAFE20462146B6
:10CEC000254AFBF7CBFE254A254B4FF040085A6117
:10CED000244A41F20C030221D150284687F80083EE
:10CEE00021493C60FBF794FE284621461F4AFBF788
:10CEF000B5FE1F4A27238DE80C00284621462A4606
:10CF00001C4BFBF707FE0A237361B36B43F480638A
:10CF1000B3634FF4802387F812833B60164B1C6089
:10CF2000164B1D80164B1D8002B0BDE8F08100BF7E
:10CF3000001304000040084000C202004005140035
:10CF400038020020802B002029CE000000E100E004
:10CF500024020020500200205C02002028400840EB
:10CF60000001002000200C402C020020480200207C
:10CF70001C4008403C2C0020300008438A1300204D
:10CF80008813002007B50D4AD36A53635B0512D599
:10CF90000B4B0C4A9B680020C3F30913C3F1260313
:10CFA000D054094B012119702723019300900246A8
:10CFB0000346FBF7AFFD03B05DF804FB00400840FB
:10CFC000000100203C2C0020642C002030B5002102
:10CFD0000278002A2FD01A4B1A4C1D8824882D1B4A
:10CFE000ADB2ACB214F4004F1CBF05F2DC54A4B2D5
:10CFF00024B240F2DA55AC421DDC134C2578134CB8
:10D0000045B10A2A06D129B91A880D2192B2A15434
:10D01000012104E01988013089B2625400211A8884
:10D02000013292B21A8040F2DB539A42D0D9044BBB
:10D0300000221A80CCE7BDE83040FFF791BE00BF68
:10D04000881300208A13002061020020A90D00200F
:10D0500007B500238DF8040001A88DF80530FFF70F
:10D06000B5FF03B05DF804FB044B1A88044B92B281
:10D070001B889BB29A42F7D1704700BF88130020EB
:10D080008A130020034B186818B10138186000B9E2
:10D0900062B67047000C0020054B1A780AB10022D6
:10D0A00001E0044B01221A70034B01221A707047F1
:10D0B000BC15002094130020B22C0020F0B5474B83
:10D0C000C3B01B7805460F4616461BB1444B0122E0
:10D0D0001A7007E0434B93F90000441C02D005216D
:10D0E000FEF748FD07A806A9FEF776FE0C9A92B156
:10D0F0000A9B0DF141000093099B3B490193089B5A
:10D100000293079B0393069B04930B9B013303F04D
:10D110005DFC441C05E00DF14100344903F0C0FD05
:10D12000152455B12B7843B110A82044294603F0AB
:10D13000B7FD284603F012FE044410A832463946D3
:10D14000204405F055F9044410A82044284903F070
:10D15000A7FDE21C72B6274B04341968481C1CBF9B
:10D1600001311960244925480D680068C5F58053D0
:10D17000A342C8BF0023EC18201A48BF00F5805016
:10D18000C0F57F600F30904210DA1D4C23680133E8
:10D190002360FFF777FF0DF14100FFF717FF0DF157
:10D1A00041001849226803F011FC11E0002B1648D9
:10D1B00002DD002343550B600B68941E8DF8404040
:10D1C0009C180C60184410A902F0CAFDFFF75AFF22
:10D1D0000DF14100FFF7FAFE43B0F0BDBC15002091
:10D1E0009413002062020020AF680100D1680100A2
:10D1F000E6680100000C0020C4150020C8150020BE
:10D20000C0150020E9680100CC150020094A0A4B2E
:10D21000116831B1002111601A78013AD2B21A7046
:10D2200001E0012111601B7813B13220FEF7C4BC6C
:10D23000704700BF94010C428C13002010B5074AC0
:10D2400000231360064C074A136094F90030013341
:10D2500003D10548FEF758FC207010BDC41500200E
:10D2600062020020C815002099D000000FB407B555
:10D2700004AA52F8041B00200192FFF71FFF03B01D
:10D280005DF804EB04B070470FB407B504AA52F878
:10D29000041B04480192FFF711FF03B05DF804EB93
:10D2A00004B070471E69010038B50C46014628B12C
:10D2B000184801F0E3FC002818BF044616490B7813
:10D2C00023B116482246FFF7D1FF03E01448214658
:10D2D000FFF7CCFF134D21460F4803F0E1FC214638
:10D2E00028461322FDF76AFC2C46014628B9E96856
:10D2F0002846FDF71FFF014628B10B48FFF7C4FF82
:10D300000023236002E0094B02221A60BDE8384086
:10D3100001F0C6BD25690100652C002027690100C8
:10D320003E6901009813002050690100901300200D
:10D330002DE9F341804601F0E5FB0446002840F06A
:10D340008780454801F07EFC002800F0818001F0D4
:10D3500081FD2046FCF7ACFB08B9012525E03F4ADA
:10D360001368013B002B13604ADB3D4816E03D4942
:10D3700001331944384822460DF10603FDF778FDC4
:10D38000054600282DD1BDF80630A34209DA334AFC
:10D390001368013B002B136032DB3348FFF774FF47
:10D3A0002EE03B68023423443B60304E304A336801
:10D3B0001268934220D001F0A5FBE8B9294B3268EE
:10D3C0009C5C1A460CB934601C7833682244D15CEA
:10D3D000264F0A29CBD02748FFF756FFFFF72EFF2D
:10D3E0000AE01E4A1368013B002B136008DB224849
:10D3F0002946FFF749FF03E015B91748FDF709FE75
:10D40000B8F1000F11D101F04BFD01F07BFB88B9A1
:10D410001A4B05221A701A4B01221A601948FEF79E
:10D42000B9FB3220FEF7C8FB04E001F06BFB0028DB
:10D43000E9D10DE0144B93F90000431C02D00F21F9
:10D44000FEF798FB114B01221A70114B00221A7043
:10D4500002B0BDE8F08100BF9813002090130020B7
:10D460006B690100CC150020D9690100C8150020A6
:10D47000C415002093690100C16901008C130020CC
:10D4800094010C420DD2000062020020BC15002065
:10D49000941300200A4B1A680A4B1B68D31A48BF22
:10D4A00003F58053B3F5806F074B04DC1A7832B173
:10D4B000064A12781AB900201870FFF739BF704772
:10D4C000C4150020C815002094130020BC150020AE
:10D4D000072808B504DC00F007FC00F05FFE03E05D
:10D4E00000F0E8FC00F032FF014B01221A7008BD89
:10D4F000B22C002010B503242046FEF7EFFA38B115
:10D50000072C02DD2046FEF7C1FA2046FEF7F4FAAA
:10D5100001340D2CF0D10D4AFF2313700C4A052164
:10D5200013700C4A11600C4A13700C4A00231360EC
:10D530000B4A13600B4A13600B4A13600B4A1360CB
:10D540000B4A13600B4A136010BD00BF782C0020FB
:10D55000880200207C2C0020AD020020A82C002096
:10D56000A02C0020942C0020A42C00209C2C002017
:10D57000982C0020AC2C002010B51448144900F061
:10D58000C7F80024134B2422E158234401F13E4004
:10D5900040091B79A0F5C040B0FBF2F0C0B2C1F366
:10D5A0008401042283F001030834FBF723FD402C9F
:10D5B000E8D10324204608490134FEF75FFA0D2C18
:10D5C000F8D1BDE81040FFF795BF00BFEC6B01003C
:10D5D000F46C0100F0690100D1D4000000B59FB0E7
:10D5E00002460549684603F0F1F96846FFF73EFE3A
:10D5F0001FB05DF804FB00BF306A01000A46411C01
:10D6000010B5034620D0C1B2072905D9BDE81040A6
:10D610000E481946FFF738BE0D4951F8301008681A
:10D62000003018BF012090420ED00A6009490A4C10
:10D6300051F82310094B0A48002A0CBF22461A460B
:10D64000BDE81040FFF712BE10BD00BF476A0100E1
:10D65000F069010064020020436A0100406A010091
:10D66000756A010010B50648FFF700FE002460B29D
:10D6700000210134FFF7C2FF082CF8D110BD00BF14
:10D680008D6A0100431C07D0044B53F830301868F2
:10D69000003018BF0120704700207047F06901007A
:10D6A000026807491378096819444978090702D5BF
:10D6B00001320260F4E7D3F1010038BF0020704767
:10D6C000C802002030B5034600681A680F4C117874
:10D6D00025680D446D7815F0070502D001321A60F7
:10D6E000F3E791B115701A6801321A60196825685C
:10D6F0000A7815446D782D0702D501311960F5E7D8
:10D70000232A02D0002A18BF002030BDC802002002
:10D71000024B1860024B1960704700BFF4270020CD
:10D72000F827002038B5064B05461C6834B1201D8B
:10D73000294603F097F908B12468F7E7204638BD79
:10D74000002800202DE9F041514FB4B0FFF78CFCC8
:10D750003B6813B14F4B1B781BB94F48FFF736FCA2
:10D7600093E04E48FFF732FC4D4B4E4A18784E4B33
:10D77000002500280CBF10461846FFF727FC0C2692
:10D780006E433B689A599919002A7ED00B79022B77
:10D7900079D002A8454903F019F93D4B02ACD3F802
:10D7A00000E004440EEB06021379092B5CD8DFE895
:10D7B00003F0052C61385B3D3D3D3D3D05F103081F
:10D7C0004046FEF78BF928B92046394903F068FA3C
:10D7D00008344FE03B681E44B36833B11A785B7875
:10D7E0008DF806208DF8073006E040460DF1060161
:10D7F0000DF10702FEF768F920462E499DF9062033
:10D800009DF9073003F0E2F809E0936820461A68B2
:10D81000531C01D1284919E0284903F0D7F80444E2
:10D8200028E09368204626491A68F6E725490968E2
:10D8300029B92046244903F033FA1C341AE09268CF
:10D8400092F90020002A05DA2049204603F028FA40
:10D8500007340FE003F18043053B51F823302046A5
:10D860001B4953F82220D8E71A4829465EF80620BB
:10D87000FFF70AFD1849204603F012FA02A8FFF745
:10D88000A5FBFFF7F1FB013579E734B0BDE8F08186
:10D89000F4270020F0270020076D0100256D01000E
:10D8A000E42B0020026D0100FC6C01004B6D0100B7
:10D8B0004B740100DA630100546D01005C6D0100DE
:10D8C000606D0100F8270020646D0100816D01008A
:10D8D000A9660100896D0100A27A01002DE9F04FCF
:10D8E0000646BBB00025A74CADF8165001F0B2FAC1
:10D8F000A5483146FFF7BAFC314620460122FDF724
:10D900005DF9014630B1A148FFF7BEFC256001F08A
:10D91000C7FAC3E19E4B1868994648B1046801F004
:10D920007BFF0CB12046F9E79A4BC9F800401C6018
:10D93000994B01241C70002608ADA91991480122B9
:10D940000DF11603FDF7D6F9014630B19348FFF704
:10D950009BFC914A00231370B7E0BDF8163063B109
:10D960003AAB334413F8C83C0D2B01D1013E01E022
:10D970000A2B02D00136C72EDED93AAF3AAB47F8B0
:10D98000D05D00223344384603F8C82CFFF788FEE8
:10D99000002840F08B80069B1A78232A00F08680AE
:10D9A000DFF820B2DBF800100A445278900703D168
:10D9B0007B4875E001320692069A92F800A001EBCE
:10D9C0000A0090F8018018F00708F3D1BAF15F0F50
:10D9D000F0D082F80080734A126811681546002959
:10D9E0007BD018460292039303F03CF8029A039B03
:10D9F0000C32002877D008F10108EEE7069BDBF82F
:10DA00000020197811444978490740F1A980591C30
:10DA1000069158781978104440783039400706D577
:10DA2000981C06905B780A2000FB01313039069B78
:10DA300018783A2840F0948093F801E002EB0E0049
:10DA40004078400740F18C80987802445278520721
:10DA500040F186800333AEF1300E0A2202FB0E0243
:10DA60000693514B303A1B781BB101311829A8BFDE
:10DA70000021AB680BB119705A7008F103084046D9
:10DA800049B252B2FEF70EF84046FEF72DF838467E
:10DA9000FFF706FE50B9069B1A78232A06D04348A2
:10DAA0000DF11F0221469A1AFFF7EEFBBDF8163062
:10DAB0005BB1C72E05D93E482146C822FFF7E4FBDB
:10DAC00003E0FFF7D1FA013435E72E48FDF7F5FA08
:10DAD00001F0E6F9FFF736FEE0E00DF11F023548F0
